{
  "contractName": "University",
  "abi": [
    {
      "inputs": [],
      "stateMutability": "nonpayable",
      "type": "constructor"
    },
    {
      "anonymous": false,
      "inputs": [
        {
          "indexed": false,
          "internalType": "uint256",
          "name": "certNo",
          "type": "uint256"
        },
        {
          "indexed": false,
          "internalType": "bytes32",
          "name": "certHash",
          "type": "bytes32"
        }
      ],
      "name": "CertificateAdded",
      "type": "event"
    },
    {
      "inputs": [],
      "name": "owner",
      "outputs": [
        {
          "internalType": "address",
          "name": "",
          "type": "address"
        }
      ],
      "stateMutability": "view",
      "type": "function"
    },
    {
      "inputs": [
        {
          "internalType": "uint256",
          "name": "certNo",
          "type": "uint256"
        },
        {
          "internalType": "string",
          "name": "name",
          "type": "string"
        },
        {
          "internalType": "string",
          "name": "course",
          "type": "string"
        },
        {
          "internalType": "string",
          "name": "date",
          "type": "string"
        }
      ],
      "name": "addCertificate",
      "outputs": [],
      "stateMutability": "nonpayable",
      "type": "function"
    },
    {
      "inputs": [
        {
          "internalType": "uint256",
          "name": "certNo",
          "type": "uint256"
        },
        {
          "internalType": "bytes32",
          "name": "providedHash",
          "type": "bytes32"
        }
      ],
      "name": "getCertificate",
      "outputs": [
        {
          "internalType": "string",
          "name": "",
          "type": "string"
        },
        {
          "internalType": "string",
          "name": "",
          "type": "string"
        },
        {
          "internalType": "string",
          "name": "",
          "type": "string"
        }
      ],
      "stateMutability": "view",
      "type": "function"
    },
    {
      "inputs": [
        {
          "internalType": "uint256",
          "name": "number",
          "type": "uint256"
        }
      ],
      "name": "print",
      "outputs": [
        {
          "internalType": "string",
          "name": "",
          "type": "string"
        },
        {
          "internalType": "string",
          "name": "",
          "type": "string"
        },
        {
          "internalType": "string",
          "name": "",
          "type": "string"
        },
        {
          "internalType": "bytes32",
          "name": "",
          "type": "bytes32"
        }
      ],
      "stateMutability": "view",
      "type": "function"
    },
    {
      "inputs": [
        {
          "internalType": "uint256",
          "name": "certNo",
          "type": "uint256"
        }
      ],
      "name": "checkCertNoRepeat",
      "outputs": [
        {
          "internalType": "bool",
          "name": "",
          "type": "bool"
        }
      ],
      "stateMutability": "view",
      "type": "function"
    }
  ],
  "bytecode": "0x608060405234801561001057600080fd5b50336000806101000a81548173ffffffffffffffffffffffffffffffffffffffff021916908373ffffffffffffffffffffffffffffffffffffffff160217905550610dd9806100606000396000f3fe608060405234801561001057600080fd5b50600436106100575760003560e01c80632df2e4911461005c5780636bb0ae101461008e5780637991ac8d146100c15780638da5cb5b146100dd578063f7ff5731146100fb575b600080fd5b61007660048036038101906100719190610863565b61012b565b60405161008593929190610abf565b60405180910390f35b6100a860048036038101906100a3919061083a565b61037f565b6040516100b89493929190610b0b565b60405180910390f35b6100db60048036038101906100d6919061089f565b610595565b005b6100e56106ae565b6040516100f29190610a89565b60405180910390f35b6101156004803603810190610110919061083a565b6106d2565b6040516101229190610aa4565b60405180910390f35b60608060606000600160008781526020019081526020016000206040518060a00160405290816000820154815260200160018201805461016a90610cca565b80601f016020809104026020016040519081016040528092919081815260200182805461019690610cca565b80156101e35780601f106101b8576101008083540402835291602001916101e3565b820191906000526020600020905b8154815290600101906020018083116101c657829003601f168201915b505050505081526020016002820180546101fc90610cca565b80601f016020809104026020016040519081016040528092919081815260200182805461022890610cca565b80156102755780601f1061024a57610100808354040283529160200191610275565b820191906000526020600020905b81548152906001019060200180831161025857829003601f168201915b5050505050815260200160038201805461028e90610cca565b80601f01602080910402602001604051908101604052809291908181526020018280546102ba90610cca565b80156103075780601f106102dc57610100808354040283529160200191610307565b820191906000526020600020905b8154815290600101906020018083116102ea57829003601f168201915b50505050508152602001600482015481525050905080608001518514610362576040517f08c379a000000000000000000000000000000000000000000000000000000000815260040161035990610b65565b60405180910390fd5b806020015181604001518260600151935093509350509250925092565b6060806060600080600160008781526020019081526020016000206040518060a0016040529081600082015481526020016001820180546103bf90610cca565b80601f01602080910402602001604051908101604052809291908181526020018280546103eb90610cca565b80156104385780601f1061040d57610100808354040283529160200191610438565b820191906000526020600020905b81548152906001019060200180831161041b57829003601f168201915b5050505050815260200160028201805461045190610cca565b80601f016020809104026020016040519081016040528092919081815260200182805461047d90610cca565b80156104ca5780601f1061049f576101008083540402835291602001916104ca565b820191906000526020600020905b8154815290600101906020018083116104ad57829003601f168201915b505050505081526020016003820180546104e390610cca565b80601f016020809104026020016040519081016040528092919081815260200182805461050f90610cca565b801561055c5780601f106105315761010080835404028352916020019161055c565b820191906000526020600020905b81548152906001019060200180831161053f57829003601f168201915b50505050508152602001600482015481525050905080602001518160400151826060015183608001519450945094509450509193509193565b6000848484846040516020016105ae9493929190610a47565b6040516020818303038152906040528051906020012090506040518060a001604052808681526020018581526020018481526020018381526020018281525060016000878152602001908152602001600020600082015181600001556020820151816001019080519060200190610626929190610705565b506040820151816002019080519060200190610643929190610705565b506060820151816003019080519060200190610660929190610705565b50608082015181600401559050507f1fee86f9153b9f3e467db680d0bce0406c5fe54d54c5807ccb2dd7552633b448858260405161069f929190610b85565b60405180910390a15050505050565b60008054906101000a900473ffffffffffffffffffffffffffffffffffffffff1681565b600080600160008481526020019081526020016000206000015414156106fb5760019050610700565b600090505b919050565b82805461071190610cca565b90600052602060002090601f016020900481019282610733576000855561077a565b82601f1061074c57805160ff191683800117855561077a565b8280016001018555821561077a579182015b8281111561077957825182559160200191906001019061075e565b5b509050610787919061078b565b5090565b5b808211156107a457600081600090555060010161078c565b5090565b60006107bb6107b684610bdf565b610bae565b9050828152602081018484840111156107d357600080fd5b6107de848285610c88565b509392505050565b6000813590506107f581610d75565b92915050565b600082601f83011261080c57600080fd5b813561081c8482602086016107a8565b91505092915050565b60008135905061083481610d8c565b92915050565b60006020828403121561084c57600080fd5b600061085a84828501610825565b91505092915050565b6000806040838503121561087657600080fd5b600061088485828601610825565b9250506020610895858286016107e6565b9150509250929050565b600080600080608085870312156108b557600080fd5b60006108c387828801610825565b945050602085013567ffffffffffffffff8111156108e057600080fd5b6108ec878288016107fb565b935050604085013567ffffffffffffffff81111561090957600080fd5b610915878288016107fb565b925050606085013567ffffffffffffffff81111561093257600080fd5b61093e878288016107fb565b91505092959194509250565b61095381610c36565b82525050565b61096281610c48565b82525050565b61097181610c54565b82525050565b600061098282610c0f565b61098c8185610c1a565b935061099c818560208601610c97565b6109a581610d64565b840191505092915050565b60006109bb82610c0f565b6109c58185610c2b565b93506109d5818560208601610c97565b80840191505092915050565b60006109ee601383610c1a565b91507f496e76616c6964206365727469666963617465000000000000000000000000006000830152602082019050919050565b610a2a81610c7e565b82525050565b610a41610a3c82610c7e565b610cfc565b82525050565b6000610a538287610a30565b602082019150610a6382866109b0565b9150610a6f82856109b0565b9150610a7b82846109b0565b915081905095945050505050565b6000602082019050610a9e600083018461094a565b92915050565b6000602082019050610ab96000830184610959565b92915050565b60006060820190508181036000830152610ad98186610977565b90508181036020830152610aed8185610977565b90508181036040830152610b018184610977565b9050949350505050565b60006080820190508181036000830152610b258187610977565b90508181036020830152610b398186610977565b90508181036040830152610b4d8185610977565b9050610b5c6060830184610968565b95945050505050565b60006020820190508181036000830152610b7e816109e1565b9050919050565b6000604082019050610b9a6000830185610a21565b610ba76020830184610968565b9392505050565b6000604051905081810181811067ffffffffffffffff82111715610bd557610bd4610d35565b5b8060405250919050565b600067ffffffffffffffff821115610bfa57610bf9610d35565b5b601f19601f8301169050602081019050919050565b600081519050919050565b600082825260208201905092915050565b600081905092915050565b6000610c4182610c5e565b9050919050565b60008115159050919050565b6000819050919050565b600073ffffffffffffffffffffffffffffffffffffffff82169050919050565b6000819050919050565b82818337600083830152505050565b60005b83811015610cb5578082015181840152602081019050610c9a565b83811115610cc4576000848401525b50505050565b60006002820490506001821680610ce257607f821691505b60208210811415610cf657610cf5610d06565b5b50919050565b6000819050919050565b7f4e487b7100000000000000000000000000000000000000000000000000000000600052602260045260246000fd5b7f4e487b7100000000000000000000000000000000000000000000000000000000600052604160045260246000fd5b6000601f19601f8301169050919050565b610d7e81610c54565b8114610d8957600080fd5b50565b610d9581610c7e565b8114610da057600080fd5b5056fea2646970667358221220d28db13bb2a0cbf13eab7445d0b68257c12a4e498c30c9b5e5fa45106c7a516264736f6c63430008000033",
  "immutableReferences": {},
  "source": "// SPDX-License-Identifier: MIT\r\npragma solidity ^0.8.0;\r\n\r\ncontract University {\r\n    address public owner;\r\n\r\n    constructor() {\r\n        owner = msg.sender;       //to set admin \r\n    }\r\n\r\n    struct Certificate {\r\n        uint certNo;\r\n        string name;\r\n        string course;\r\n        string date;\r\n        bytes32 certHash;\r\n    }\r\n\r\n    mapping(uint => Certificate) cert;\r\n\r\n    modifier onlyOwner() {\r\n        require(msg.sender == owner, \"Only owner can add certificates\"); //not used in addcertificate function; as test mode  any one can add certificate\r\n        _;\r\n    }\r\n\r\n    event CertificateAdded(uint certNo, bytes32 certHash);\r\n    function addCertificate(\r\n        uint certNo,\r\n        string memory name,\r\n        string memory course,\r\n        string memory date)     public {\r\n        \r\n\r\n        bytes32 certHash = keccak256(abi.encodePacked(certNo, name, course, date));  //generate hash using given data using keccak algorithm\r\n        cert[certNo] = Certificate(certNo, name, course, date, certHash);\r\n\r\n        emit CertificateAdded(certNo, certHash);\r\n        \r\n        \r\n     }\r\n\r\n//fetch data to verify\r\n    function getCertificate(uint256 certNo, bytes32 providedHash) public view        \r\n        returns (string memory, string memory, string memory)                       \r\n    {\r\n        Certificate memory _cert = cert[certNo];\r\n\r\n        require(providedHash == _cert.certHash, \"Invalid certificate\"); //comparing hashes input vs blockchain data\r\n        return (_cert.name, _cert.course, _cert.date);\r\n    }\r\n\r\n// fetch data to create pdf\r\n    function print(uint256 number) external view\r\n        returns (\r\n            string memory,\r\n            string memory,\r\n            string memory,\r\n            bytes32\r\n        )\r\n    {\r\n        Certificate memory _cert = cert[number];\r\n        return (_cert.name, _cert.course, _cert.date, _cert.certHash);\r\n    }\r\n\r\n//check certificate number input is dupilcate as per record?\r\n function checkCertNoRepeat (uint certNo) public view returns(bool)\r\n {\r\n     \r\n     if(cert[certNo].certNo==0){return(true);}  // '0' mean that lcation is not used so no repeat\r\n     else{return(false);}\r\n }\r\n\r\n\r\n\r\n}",
  "sourcePath": "C:\\Users\\5u\\Desktop\\share\\contracts\\certificate.sol",
  "compiler": {
    "name": "solc",
    "version": "0.8.0+commit.c7dfd78e.Emscripten.clang"
  },
  "schemaVersion": "3.4.14",
  "updatedAt": "2023-07-11T21:14:22.443Z",
  "devdoc": {
    "kind": "dev",
    "methods": {},
    "version": 1
  },
  "userdoc": {
    "kind": "user",
    "methods": {},
    "version": 1
  }
}